S0170000414441512D426F6F746C6F616465722E73726563BE
S31508000000004000202D300008052B0008072B0008AB
S3150800001000000000000000000000000000000000D2
S31508000020000000000000000000000000092B000886
S3150800003000000000000000000B2B00080D2B000834
S315080000407D300008000000007D3000087D30000883
S315080000507D3000087D3000087D3000087D300008BE
S31508000060000000007D3000087D3000087D30000863
S315080000707D3000087D3000087D3000080000000053
S315080000807D3000087D3000087D3000087D3000088E
S315080000907D3000087D3000087D3000087D3000087E
S315080000A07D3000087D3000087D3000087D3000086E
S315080000B07D3000087D30000800000000152B000880
S315080000C010B5064C2378002B07D1054B002B02D020
S315080000D0044800E000BF0123237010BD4803002038
S315080000E00000000074320008044B10B5002B03D042
S315080000F00349044800E000BF10BDC04600000000E8
S315080001004C0300207432000802780B78002A03D0CA
S31508000110013001319A42F7D0D01A70470023C25CE9
S315080001200133002AFBD1581E7047000002B47146FD
S3150800013049084900095C49008E4402BC7047C0461C
S3150800014003B47146490840004900095A49008E44DB
S3150800015003BC7047002243088B4274D303098B42C1
S315080001605FD3030A8B4244D3030B8B4228D3030C79
S315080001708B420DD3FF22090212BA030C8B4202D31B
S315080001801212090265D0030B8B4219D300E0090A43
S31508000190C30B8B4201D3CB03C01A5241830B8B424C
S315080001A001D38B03C01A5241430B8B4201D34B0335
S315080001B0C01A5241030B8B4201D30B03C01A52419A
S315080001C0C30A8B4201D3CB02C01A5241830A8B421F
S315080001D001D38B02C01A5241430A8B4201D34B0208
S315080001E0C01A5241030A8B4201D30B02C01A52416C
S315080001F0CDD2C3098B4201D3CB01C01A5241830920
S315080002008B4201D38B01C01A524143098B4201D359
S315080002104B01C01A524103098B4201D30B01C01A84
S315080002205241C3088B4201D3CB00C01A52418308FE
S315080002308B4201D38B00C01A524143088B4201D32B
S315080002404B00C01A5241411A00D20146524110468B
S315080002507047FFE701B5002000F006F802BDC0466A
S315080002600029F7D076E770477047C046D0400B1C88
S31508000270D1409C46203AD3401843524263469340A5
S315080002801843704710B5040001F050FCFA218900A4
S31508000290FFF760FF00F06EF80120002221004042BF
S315080002A000F020F8002010BD1023064A10B511688A
S315080002B000200B431360FFF7E5FF02F00BFC00205C
S315080002C010BDC04600200240024A1368013313607D
S315080002D07047C04620060020014B18687047C04684
S315080002E02006002070B58901002814DA0F23C0B251
S315080002F00340083B114A9B089B009B1803221040A9
S315080003009040FC321500114085408140DC69AC43C1
S315080003102143D96170BD032583082840A840FC35D0
S315080003202E00074A9B009B18C02286402940814020
S3150800033092009C58B44321439950EBE700ED00E046
S3150800034000E100E01F2318401E3B8340014A13606A
S315080003507047C04600E100E0BFF34F8F034A044BE5
S31508000360DA60BFF34F8FC046FDE7C0460400FA05C2
S3150800037000ED00E0094A431E012093420DD8C02132
S31508000380074A08485360036A09061B021B0A0B43FF
S31508000390036200200723906013607047FFFFFF0089
S315080003A010E000E000ED00E010210C4B30B5D868F5
S315080003B00022084205D00A480232C4692243C261B3
S315080003C00A000420D968014205D00121044C0243E1
S315080003D0E5692943E161DA6030BDC0460020024084
S315080003E028060020064B00201A69120606D5054A7B
S315080003F05A60054A5A6018690006C00F7047C04619
S315080004000020024023016745AB89EFCD8023034ACC
S31508000410002011690B4313617047C0460020024053
S3150800042070B50400FFF758FF01250600104B1A00A7
S31508000430D96829420FD12021D868084200D0D9604E
S315080004401023D068184002D1D3685B0708D5FFF798
S31508000450ABFF012004E0611CEAD0002C01D1032087
S3150800046070BDFFF739FF801B8442DFD2F7E7C0462D
S3150800047000200240F0B585B0029203931B4B019110
S315080004801A7E04000220012A2ED0012218481A7664
S31508000490FFF7C6FF002824D12600012C02D0022C23
S315080004A000D004260024029803992201FFF7DEFEF5
S315080004B0002201270D4B0F4DDA612B69019A3B4348
S315080004C02B6163009B1880B218800948FFF7A8FFC4
S315080004D02B69BB432B61002803D1E419E3B29E4282
S315080004E0E1D80022014B1A7605B0F0BD2806002097
S315080004F050C30000002002400022064BDA61064B7A
S31508000500043219690A431A61402219690A431A61B1
S315080005107047C04628060020002002400022064BED
S31508000520DA61064B023219690A431A614022586198
S3150800053019690A431A6170472806002000200240FC
S31508000540F8B5214E0500337E0F000220012B0CD092
S31508000550012333762B681D48012B12D1FFF760FF64
S31508000560002803D0012000233376F8BDFFF7C4FF27
S315080005701648FFF755FF0421154A13698B43136183
S31508000580F1E7FFF74DFF0028ECD101235B423B6002
S315080005906C680130AB686A68DB029B189C42E2D241
S315080005A02000FFF7BBFF0948FFF73AFF0221084A78
S315080005B013698B431361002801D03C60D3E780237D
S315080005C01B01E418E6E7C0462806002050C30000D1
S315080005D000200240F0B50B6887B002930023019112
S315080005E0029ADA4001D107B0F0BD01229A4003927F
S315080005F00399029A0A40009200D18CE0019A1021D0
S31508000600526816008E43022E0ED107251D40AD00F6
S315080006100139A940DC08A4000419276A8F43019907
S315080006200969A9400F43276203245F00BC40E443DD
S315080006300568013E2540AC4603251540BD40614688
S315080006400D430560012E0FD801998668CD682640AE
S31508000650BD40354385604668039915098E430121D7
S315080006600D409D4035434560C56801992C408D680D
S315080006708021BD4049052C43C4600A424BD0012164
S31508000680264C0326A5691E400D43A561A4699D084D
S315080006900C400594059C0F242149AD00B6006D1841
S315080006A0B4409021AF68C905A743002488420CD0FE
S315080006B01C490134884208D01B490134884204D0B9
S315080006C01A490334884200D1023CB44000993C439D
S315080006D00E00AC60164CCD4327683E43D10301D4C7
S315080006E03E002E4026606768009E3E43910301D473
S315080006F03E002E406660A768009E3E43D10201D4A4
S315080007003E002E40A660E668009F3743920201D459
S315080007102E403700E760013362E7C046001002400A
S31508000720000001400004004800080048000C00488A
S315080007300004014000690840411E8841C0B2704764
S31508000740002A01D0816170478162FCE743695940FC
S315080007504161704770B504000120002C2BD0EA25B2
S31508000760FF35635DDBB2002B05D1F4225200A3549A
S31508000770200002F083FA03230022635523001100A8
S31508000780012660682833824216D10021230008001A
S315080007900933FF338A4218D10020012123689A1CA5
S315080007A09E1D5033D187D087F08718800B4BD3878F
S315080007B0631DD877615570BD1A705E70D970D9609F
S315080007C01961596101321C33DDE719705870D87008
S315080007D0D8601861586101311C33DBE700BFFFFFA1
S315080007E080210368090258331A8800200A431A80B0
S315080007F07047F42210B55200835C04000220012BD6
S3150800080009D00123A354002906D1236880314C332B
S3150800081019800020A05410BD631DD977F9E70000A0
S31508000820F0B585B0019048B21C24002825DA7F254A
S315080008300D406C432834019DC00F2C197F25E370A9
S31508000840F4232940217001996070E2605B00C95C5D
S315080008500220012900D1F6E001210198924DC154E8
S31508000860E078019B1B68032815D821788F4E8900EC
S315080008705918FFF75BFC064C0B484C430934FF3408
S31508000880D9E7088806408A48064303E008880640F0
S315080008902E43B6B20E802678864FB0001818018807
S315080008A02E433940314389B20180A07A2178BC466B
S315080008B0002867D11E00607850360390A088029001
S315080008C00398002827D03288C90059188918802229
S315080008D0D200891801220298904308802278920053
S315080008E09A181188490604D511880F4072490F4392
S315080008F017802278714992009B181A881140202285
S315080009004A40154398E0088806406D48BCE70888C1
S3150800091006406C48B8E73788C900C91901276A48EC
S31508000920591809180298B843088021783088C900F0
S3150800093009186648181809183E2A1DD95009D206FA
S3150800094001D1013880B2624A8002104308802278B9
S3150800095092009A181188490405D560461188014005
S315080009605C480143118022785B4992009B181A88DB
S315080009701140C0229201C3E750083A4200D0013024
S315080009808002E3E7890059180A8854484B4F024009
S315080009905348024318000A80227850300188D20052
S315080009A0521880219A18C90052180121E6888E43E8
S315080009B0168022780088D2009A181218424812180F
S315080009C02089884310808020227861789200C001AF
S315080009D09A18002939D11188014205D06046118834
S315080009E001403C480143118022783E4892009A18FB
S315080009F01188490605D5664611883140014389B2F2
S31508000A0011806646227892009A1811883140084368
S31508000A1080B210802178304A890059180888104019
S31508000A20C022920142402A4392B20A80227892005A
S31508000A309B181A8817403D43ADB21D80F423002049
S31508000A40019A5B00D05405B0F0BD168826490642C7
S31508000A5005D0664610883040084380B21080227858
S31508000A6092009A181088400605D5664610883040C8
S31508000A70114E304310806646227892009A181088E4
S31508000A803040014389B21180227892009A18118861
S31508000A900F402F43BFB2178022780F4992009B1848
S31508000AA01A880A402DE7C0468080FFFF0F0900001C
S31508000AB0808200000F0F0000C0800000BF8FFFFF7C
S31508000AC080860000808400000404000006040000FC
S31508000AD00080FFFF80C000008FBFFFFF0F0E0000E1
S31508000AE080810000C080FFFF80C0FFFF4BB2F0B5D9
S31508000AF01C220500002B33DA7F20084042432832A7
S31508000B00AA187F20DB0F5370F423014011705B0095
S31508000B10E95C7D38012922D00121E954967A50787A
S31508000B2029681378424C002E2DD19B00CB1800283B
S31508000B301AD01888400605D518883E4E30403E4ED5
S31508000B403043188013783D4A9B00C9180B88134018
S31508000B501C43F4230020A4B25B000C80E854F0BDCB
S31508000B604A430932FF32CBE71888400405D518886E
S31508000B70304E3040324E304318801378314A9B004D
S31508000B80C9180B88E3E780279B002A4EFF01CB187C
S31508000B90002825D11888384204D01888284F3040B4
S31508000BA038431880137828489B00CB181F887F067F
S31508000BB004D51F8837400743BFB21F8013789B00B0
S31508000BC0CB181F883E40304380B2188010781D4EDF
S31508000BD0800008180388334023439BB20380B1E79B
S31508000BE01888384205D01F88184837400743BFB2CF
S31508000BF01F8013789B00CB181F88780604D51F889A
S31508000C000D48374007431F80137810489B00CB18C0
S31508000C101F883E40304380B218801078074E800007
S31508000C2008180388334023439BB20380A5E7C046D0
S31508000C308080FFFF0F0F0000C0800000BF8FFFFFFE
S31508000C4080C000008FBFFFFFC080FFFF80C0FFFF8E
S31508000C50F0B57F242140633C27004F43C7193D0068
S31508000C600026FC35FF37EA612B626E62BE72797226
S31508000C70AA6993422FD99B1A2B624C430419FF3455
S31508000C80E57C0368002D29D11D0050352E88657A2C
S31508000C90ED00AD19394C1C192D193E2A59D954099C
S31508000CA0A4B2D20601D1013CA4B2354AA402144327
S31508000CB02C801C2251434018FF30427A3149920059
S31508000CC09B181A8800201140C02292014A402E49DA
S31508000CD00A431A80F0BD2E621A00CEE7A57A002DC7
S31508000CE02AD11D0050352E88657A284CED00AD199D
S31508000CF01C192D193E2A17D95409A4B2D60601D1B2
S31508000D00013CA4B21E4EA40234432C801C264E433A
S31508000D108619FF36B47A002C23D11C00757A503414
S31508000D202488ED002D19B5E75408A4B2D60701D5D5
S31508000D300134A4B2A402E8E7012DE7D11D00647AC4
S31508000D4050352D88E4001C196419104D6419228049
S31508000D50DCE75408A4B2D20701D50134A4B2A40230
S31508000D60A6E7012CA5D11C0050342588747AE40026
S31508000D701C196419014D641922809AE706040000BB
S31508000D800080FFFF8FBFFFFF808000000204000085
S31508000D907F230B401C2159434018FC30406A80B21F
S31508000DA070470000F42310B55B00C45C0200022003
S31508000DB0012C22D00138D054CD3B48B2FF3B002845
S31508000DC01CDA7F240C40634328330124D3189C7013
S31508000DD07E342140C40F19705C701468134B0029C7
S31508000DE010D12088124901401248484003439BB25B
S31508000DF02380F42300205B00D05410BD4B430933F5
S31508000E00FF33E2E789006118002808DA08880A4CE7
S31508000E1004401020604003439BB20B80E9E7088832
S31508000E20064C044080204001F4E7C0468080FFFF5E
S31508000E30BFBFFFFF10100000BF8FFFFF8FBFFFFF70
S31508000E404AB270B51C230400002A34DA7F20084011
S31508000E50434328330020E318D20F5A70F4229870BF
S31508000E607F30014019705200A15C7D38012921D0DC
S31508000E700121A1541A7820685D78920019498218D0
S31508000E80002D1CD015886D0605D51588164E3540DB
S31508000E90164E354315801A7892008218138814481E
S31508000EA01840302343400B439BB21380F4230020A1
S31508000EB05B00E05470BD4B430933FF33CAE715881E
S31508000EC06D0405D51588084E35400A4E35431580FC
S31508000ED01A7892008218138807481840C0239B0185
S31508000EE0E0E7C0468080FFFF0F0F0000C0800000CB
S31508000EF0BF8FFFFF80C000008FBFFFFF30B5802483
S31508000F00E40000198218080001335B08002B00D1A1
S31508000F1030BD4478057824022C43451AAC52023079
S31508000F20013BF3E7F8B57F250D401C2104000800B6
S31508000F306843201882630200002601272932C3630A
S31508000F400664013A57701570426B93422ED99B1A64
S31508000F50C363694361180B000F0032331B7896B2DE
S31508000F602837002B25D18A8D3300896B2068FFF737
S31508000F70C5FF23681A00503211883A78D2009B18A8
S31508000F80514A5B189B181E801C214D43651928354C
S31508000F902B7822689B00D21813884C4900201940E8
S31508000FA030234B404A490B431380F8BDC6631A00E9
S31508000FB0CFE73B7820689F00C7193F882931097811
S31508000FC07F0645D5002937D1010050310988DB0055
S31508000FD05B18404941185B183E2A25D9510989B240
S31508000FE0D20601D1013989B23B4A890211431980D7
S31508000FF01C236B43E3181A8E1C276F43E71933002B
S31508001000B96BFFF77BFF3B0029331B782268002B5F
S315080010104DD128373B7831499B00D3181A880A40A6
S315080010202F490A431A80AFE7510889B2D20701D57A
S31508001030013189B28902DAE70129D9D10100503193
S315080010400988DB00C3185B1822495B181A80CFE7AA
S31508001050002920D1010050310988DB005B181A49A4
S3150800106041185B183E2A0ED9510989B2D20601D118
S31508001070013989B2184A8902114319801C236B4326
S31508001080E318DA8DB8E7510889B2D20701D50131DC
S3150800109089B28902F1E70129F0D1010050310988A6
S315080010A0DB00C3185B1808495B181A80E6E7012BB2
S315080010B000D069E728373B7808499B00D3181A8877
S315080010C00A400849ADE7C04602040000BF8FFFFF8B
S315080010D080800000060400000080FFFF0F0F00005C
S315080010E0C080000080C0000070B58025ED00401962
S315080010F05C08821826000800002E07D1640009192A
S315080011001219DB0701D513880B7070BD451AAD5A45
S31508001110013E05702D0A45700230EDE7F0B503680B
S3150800112085B00633DB8F04001BB2002B00DA61E0C2
S3150800113023680633DA8F52050AD5DA8F87492000E5
S315080011400A40DA8701F0DEFD00212000FFF751FB97
S3150800115023689A1DD18F490403D5D18F8048014051
S31508001160D187D18F890403D5D18F7E480140D18795
S31508001170D28FD2040FD504210233DA8F20008A4396
S31508001180DA87794ADA8701F0E1FD23687749063379
S31508001190DA8F0A40DA8723689A1DD18F090512D596
S315080011A0D18F734802330140D1870821D88F014374
S315080011B0D9870421D88F0143D987D38FDB0402D47A
S315080011C0200001F0B1FD23680633DA8F920506D5B3
S315080011D0DA8F684920000A40DA8701F08CFD236817
S315080011E00633DA8FD20503D5DA8F63490A40DA87E0
S315080011F005B0F0BD02AB9F1D00233B80206803AA03
S31508001200831DDB8F9BB213801BB2002B00DB8FE79D
S315080012100F2316881E4000D0BEE0102113881940FF
S315080012200388002926D1554A13400380030050330A
S315080012301A88230028331B78DB00C018504B801807
S31508001240C0180388A26B9B059B0D2364D318A36360
S31508001250200001F045FD631DDA7F002ACED0E06B41
S315080012600028CBD18022D97F114322684C321180C5
S31508001270D877C3E79BB23B803B881B0520D5030084
S3150800128050331A8884235B00E35C2100DB00C31813
S315080012909B183C4AED319B1822001B8809329B0596
S315080012A09B0DFF329361FF319288FFF71DFF22687D
S315080012B03549138820000B40138001F0FBFC9DE79D
S315080012C03B881BB2002B99DA03882F4A2500134066
S315080012D00380030050331A8884235B00E35C0935D6
S315080012E0DB00C3189B18274AFF359B181B889B05EC
S315080012F09B0DAB6107D0AA882969FFF7F5FE2B6914
S31508001300AA699B182B610021200001F0DDFC2268E8
S315080013101C49130050331B88E8685118C9183E2821
S3150800132013D943099BB2C00601D1013B9BB21748AA
S315080013309B0203430B80138815491940C0239B0160
S315080013404B4014490B43138058E743089BB2C00728
S3150800135001D501339BB29B02ECE7C046FFFBFFFFBA
S31508001360FFBFFFFFFFDFFFFF00BDFFFFFFEFFFFF30
S31508001370FFF7FFFFFFFDFFFFFFFEFFFF0F8FFFFFDA
S3150800138002040000060400008F0F00000080FFFF23
S315080013908FBFFFFF80800000B3000193C3181A882F
S315080013A092B23A803A8812B2002A3DDA1A8874490B
S315080013B00A401C21714361181A800B000200FF3392
S315080013C0DD7C50325B7A002D73D11288DB00C3189E
S315080013D09B186C4A9B181D88AD05AD0D07D00B00F0
S315080013E0FC31FE33DA89C9692B00FFF77DFE1C2123
S315080013F00800704320180200FC32536A5B195362D6
S31508001400D3699C46AC446346D361136A002B03D068
S315080014109269954200D37CE00B007343E318FF33CF
S31508001420597A200001F050FC80223B88134200D1F3
S31508001430E4E62068B300C3181A8853490A401C21F9
S31508001440714361181A800B00020032331D7850323E
S315080014500A3B002D64D11B781288DB00C3189B1841
S315080014604A4A9B181B889B059B0D0B6403D08A8DE3
S31508001470896BFFF743FD22681300503318881C2335
S315080014805E43A619310028310B78DB00D3183F4A92
S315080014901B189B181A88B36B9205920D32649A181A
S315080014A0F36BB26309782000002B66D101F018FCB3
S315080014B0A4E69D0045192D88DB001288C3189B18E1
S315080014C06D041CD5314A9B181D88AD05AD0D07D096
S315080014D00B00FE331A8AFC312B00C969FFF704FE9C
S315080014E01C237343E318FF335A7A236892009A1829
S315080014F0138827490B4027490B43138077E7214A6E
S315080015009B181D88AD05AD0DEAD00B00FE335A8A2F
S31508001510E1E7FF30417A62462000FFF799FB83E74F
S315080015201B789D0045192D88DB001288C3189B1867
S315080015306D0619D5154A9B181B889B059B0D0B64D0
S3150800154003D0CA8D896BFFF7D9FC1C237343E318B4
S3150800155028331A78236892009A1813880C490B4086
S315080015600D490B43138086E7064A9B181B889B0583
S315080015709B0D0B64E9D00A8EE4E7FFF7D3FC3DE642
S315080015808F0F0000060400000F8FFFFF0204000003
S315080015900F0F0000C080000080C0000030B51C247A
S315080015A00D060AD57F252940614328314118002AAE
S315080015B007D18A728B80002030BD61430931FF3123
S315080015C0F4E70122CB801B0C8A720B81F3E700003B
S315080015D0F0B5036885B00500DB072FD42B689B0799
S315080015E000D586E02B681B0700D5C6E02B685B078D
S315080015F000D5E9E02B68DB061AD56A69BA4C0423DC
S31508001600012A00D055E1616B02260B436363636BC5
S315080016101A436263FEF760FE0700636B334200D12C
S3150800162040E1F821626BAB698A43DB0013436363CD
S31508001630296A002900D063E1002018E00C21AA4C91
S3150800164062680A40042A0BD063680B40082B10D145
S31508001650C02263685202134080225202934208D184
S3150800166023689B03BAD56B68002BB7D1012005B058
S31508001670F0BD6B68012B13D1802322685B021343EC
S315080016802360FEF729FE80260700B6022368334248
S31508001690A4D1FEF721FEC01B6428F7D90320E6E78C
S315080016A0002B16D12368914A8026134023602368AD
S315080016B08F4AB60213402360FEF70EFE0700236822
S315080016C0334200D18AE7FEF707FEC01B6428F6D925
S315080016D0E4E7052B05D180232268DB021343236048
S315080016E0CAE72368814A134023602368804A134067
S315080016F0C6E70C227C4C636813420BD06368134020
S31508001700082B15D1C02263685202134080221202A8
S3150800171093420DD123689B0702D5EB68012BA5D10F
S31508001720F82122682B698A43DB001343236059E7B3
S31508001730EA680123002A0FD0226802261343236091
S31508001740FEF7CAFD070023683342E9D1FEF7C4FD58
S31508001750C01B0228F7D9A1E7226802269A4322600D
S31508001760FEF7BAFD07002368334200D13AE7FEF7D1
S31508001770B3FDC01B0228F6D990E7EA6901235A4C43
S31508001780002A10D0626A022613436362FEF7A4FD9C
S315080017900700636A334200D028E7FEF79DFDC01BA9
S315080017A00228F6D97AE7626A02269A436262FEF747
S315080017B093FD0700636A334200D117E7FEF78CFDF5
S315080017C0C01B0228F6D969E780220021464C52053B
S315080017D0E3690091134208D1E3691343E361E369BE
S315080017E013400393039B012300938027414E7F00F8
S315080017F033683B4206D0AB68012B13D1226A1343E8
S31508001800236230E033683B433360FEF765FD0190A1
S3150800181033683B42EFD1FEF75FFD019BC01A64288F
S31508001820F6D93BE70122002B14D1236A02279343FA
S315080018302362236A033293432362FEF74DFD0600B3
S31508001840236A3B4225D0FEF747FD2B4B801B984267
S31508001850F6D923E7052B0BD1216A013B0B432362FB
S31508001860236A1A432262FEF737FD022706000DE0B7
S31508001870236A934304222362236A9343C0E7FEF74D
S315080018802BFD1D4B801B984200D907E7236A3B4274
S31508001890F5D0009B012B00D0ACE6E369174A13404C
S315080018A0E361A7E6FEF718FDC01B022800D8B4E6D8
S315080018B0F4E6053203D1626B9A436263B1E6626B62
S315080018C00226134301226363636B93436363FEF744
S315080018D003FD0700636B334200D1A9E6FEF7FCFC63
S315080018E0C01B0228F6D9D9E600100240FFFFFEFF0A
S315080018F0FFFFFBFF0070004088130000FFFFFFEFAB
S315080019000C22264C012063681340082B00D1AEE652
S315080019102368234A1340236002292FD1FEF7DCFCF3
S3150800192080260700B6042368334221D10F22E36AD2
S315080019309343EA6A1343E362696AAB6A62680B43D4
S31508001940184980250A4013436360802322685B0494
S3150800195013432360FEF7C0FC0600AD0423682B4240
S3150800196000D069E6FEF7B8FC801B0228F6D995E692
S31508001970FEF7B2FCC01B0228D5D98FE6FEF7ACFCF1
S3150800198080250600AD0423682B4200D154E6FEF7F5
S31508001990A3FC801B0228F6D980E6C0460010024048
S315080019A0FFFFFFFEFF7FC2FF30B5124D89B0102240
S315080019B02900684601F088FB290004AC1031102282
S315080019C0200001F081FB0C220B494B681A40082ABB
S315080019D00DD1CA6A0F2168469B0C0B400A40C55CAC
S315080019E0A15C0648FEF7B6FB684309B030BD03485C
S315080019F0FBE7C0468C3200080010024000127A004D
S31508001A00F7B50122434C060023680F0013408B42AA
S31508001A101CD33268930723D4D30729D40123226819
S31508001A201A40974267D333683B4C5B076AD4FFF783
S31508001A30BBFF6368394A1B061B0FD35CD840384B7B
S31508001A4018600020FEF71EFC002008E02368934378
S31508001A500B432360236813409942DAD00120FEBD68
S31508001A60F0202D494B688343B06803434B60D3E7A6
S31508001A70294D72682B68012A1AD19B03EED50321DA
S31508001A806B688B4313436B60FEF726FC7368019003
S31508001A90012B15D10C226B681340042BBED0FEF720
S31508001AA01BFC019BC01A1F4B9842F3D90320D6E7AB
S31508001AB0022A02D19B01E2D4D0E79B07DFD4CDE707
S31508001AC0022B12D00C226B681342A7D0FEF704FC37
S31508001AD0019BC01A134B9842F4D9E7E7FEF7FCFBC3
S31508001AE0019BC01A0F4B9842E0D80C226B68134032
S31508001AF0082BF3D192E722689A43226022681A4299
S31508001B00ACD190E76368084A1340F26813436360F0
S31508001B108DE7C0460020024000100240FD33000851
S31508001B201001002088130000FFF8FFFF014B18681A
S31508001B307047C04610010020F0B5036885B005005F
S31508001B40DB0328D5802200213B4C5205E36900912E
S31508001B50134208D1E3691343E361E369134003932E
S31508001B60039B012300938027344E7F0033683B4252
S31508001B702FD0C022236A92001340314E3BD1236AEC
S31508001B801E406B681E43009B2662012B03D1E36946
S31508001B902C4A1340E3612A68D30706D50320264951
S31508001BA00B6B8343A86803430B63930606D5102083
S31508001BB021490B6B8343E86803430B6300209303B7
S31508001BC017D580211C4A136B8B4329690B43136372
S31508001BD00FE033683B433360FEF77EFB01903368C2
S31508001BE03B42C6D1FEF778FB019BC01A6428F6D99A
S31508001BF0032005B0F0BD69680A409342BFD0802330
S31508001C00226A206A11005B0203432362236A0E4894
S31508001C103140034023622162D307B0D5FEF75CFB4F
S31508001C2007000222236A1342A9D1FEF755FB074B88
S31508001C30C01B9842F5D9DBE700100240007000404F
S31508001C40FFFCFFFFFFFFFFEFFFFFFEFF881300000B
S31508001C5086239B00C3580220002B03D08522002030
S31508001C60920098507047000086239B0070B5C458B0
S31508001C700433C358002B0BD08025AD00605DFF28C8
S31508001C8006D0044A9B68A25C21009847FF23635547
S31508001C90002070BD010200004323038000487047FE
S31508001CA03800002043230380004870477C0000204A
S31508001CB04323038000487047CC0000200A23038092
S31508001CC000487047C000002070B58626B60004009C
S31508001CD0855901F025F983239B00E850A359022072
S31508001CE0002B0AD0832381229B00E9181033E3587E
S31508001CF09200DB68A8589847002070BD60220B78D0
S31508001D0070B51A4004000D00002A28D0202A1ED1DA
S31508001D10CA884878002A1CD086215BB28900665892
S31508001D20002B0BDA87239B00E35831009B68984702
S31508001D303100EA88200000F0F4FB08E080239B00CD
S31508001D40F0540A4B3100F254200000F000FC002049
S31508001D5070BD87239B00E3589B689847F7E74B7845
S31508001D600A2BF4D101220249E4E7C0460102000029
S31508001D706403002070B504008625812101F05CF813
S31508001D800121200001F058F8AD008221200001F061
S31508001D9053F86359002B09D087239B00E3585B68E7
S31508001DA09847605901F0C8F800236351002070BDB8
S31508001DB0F8B5037C0400002B33D1802302229B0054
S31508001DC0812101F027F880239B0087250222012123
S31508001DD0200001F01FF8AD0008230322822120000D
S31508001DE001F018F88627280001F0A2F8BF000600BF
S31508001DF0E0510120002E13D0635900251B6898472F
S31508001E00852381229B00F550F551277C9200AF422D
S31508001E100ED1143BB2580121200001F071F83800A8
S31508001E20F8BD40230222812100F0F4FF4023CCE7CD
S31508001E304023B2580121200001F062F82800EFE79C
S31508001E400223002903D087239B00C15000231800D2
S31508001E50704786239B00C35882208000195084212E
S31508001E60890000205A50704786239B00C258143BAD
S31508001E700020D150704786239B00C25810B5022314
S31508001E80002A11D0852189005458013B002C0BD11A
S31508001E90535084239B00D3580C39525888399BB227
S31508001EA0FF3901F01DF82300180010BD86239B009A
S31508001EB0C25810B50224002A09D08121047C890061
S31508001EC0002C06D15258183B012101F019F82000C0
S31508001ED010BD52584023012101F012F80024F6E7FC
S31508001EE010B50223002813D085239B00C458002C64
S31508001EF001D00024C450002902D084239B00C1507D
S31508001F00FE2301215B00C154027000F033FF002359
S31508001F10180010BD0223002903D085239B00C15059
S31508001F2000231800704710B500F064FF002010BDAC
S31508001F3085239B00C35810B5002B01D1022010BD84
S31508001F401B6898470028F9D1F9E7852310B59B0047
S31508001F50C3585B689847002010BD000082239B0089
S31508001F6070B5C5180400280000F0AAFAFA23012261
S31508001F705B00E250124BE25A163BE2501033E15C2A
S31508001F80EA3BFF3B0B40012B0FD0002B07D0022B5F
S31508001F9010D07F232000994300F05EFF03E029005C
S31508001FA0200000F0F1F8002070BD2900200000F0A4
S31508001FB0FDF9F8E72900200000F014FAF3E7C04617
S31508001FC00E02000070B504001500002927D1FA2377
S31508001FD05B00C358032B0FD10530FF308368C268F6
S31508001FE093420BD99B1A83609A4200D91A0092B27F
S31508001FF02900200000F0BBFA002070BD85239B0055
S31508002000E3581B69002B06D0FE225200A25C032A65
S3150800201001D120009847200000F0B1FAECE78523AB
S315080020209B00C3589B69002BE6D0FE225200825CB7
S31508002030032AE1D19847DFE7F8B50D00040011003F
S31508002040002D41D1FA235B00C358022B0ED1C26979
S31508002050066AB24213D9921BC26192B200F06FFAB5
S315080020602B002A002900200000F04AFF80239B004D
S31508002070E25C012A01D10022E2540020F8BD8769FA
S3150800208031003800FEF7ECF80D1E0CD1BE420AD816
S31508002090FC267600A3599F4205D20A00200000F0CC
S315080020A04EFAA551DCE785239B00E358DB68002B35
S315080020B006D0FE225200A25C032A01D120009847CE
S315080020C0200000F068FAD1E785239B00C3585B69B6
S315080020D0002BD2D0FE225200825C032ACDD12900E1
S315080020E09847CAE7002270B504001100402300F0A3
S315080020F091FE23004025FC335D6100222B008021E0
S31508002100200000F087FEFE2301225B002562E254D0
S315080021101C33E358002B06D085239B00E35821790E
S315080021205B6820009847002070BD01740020704746
S31508002130FE23FE225B00C15CFF328154FA3AFF3A65
S31508002140C25400207047FE23FF33C25C013BC254D1
S3150800215000207047FE2310B55B00C35C032B06D135
S3150800216085239B00C358DB69002B00D098470020C5
S3150800217010BD10B50400802100F06EFE002120007D
S3150800218000F06AFE10BD000073B5040048780D0023
S31508002190092800D981E0FDF7D3FFD400F5008000B7
S315080021A0E700800072000A008000C30095004B8893
S315080021B0180A0138062870D8FDF7B8FF041F2E6FD5
S315080021C06F4A550084236A469B00E358207C1B68A7
S315080021D0911D98476B469E1D3188002970D0EA8864
S315080021E0002A6DD00B1C914200D9131C01009AB22B
S315080021F03380200000F095F962E08523227C9B005D
S31508002200E358002A06D19B6A6A46901D984702231E
S315080022104370DFE7DB6AF7E7D8B205283DD88422A2
S315080022209200237CA258FDF781FF03090B0D0F11BD
S3150800223052686946180006319047CBE79268F8E776
S31508002240D268F6E71269F4E75269F2E79269F0E7AD
S31508002250237C002B21D185236A469B00E358901DD9
S315080022605B6B9847B6E7237C002B16D185236A4615
S315080022709B00E358901D1B6B98470723C8E78B887C
S31508002280002B0AD1CB88002B07D1FE264D887F3339
S3150800229076001D40A35D032B03D12000FFF769FFDD
S315080022A00EE0FF235B00E5542900200000F008FE3D
S315080022B0200000F064F90223002D00D10123A35564
S315080022C0002076BD8978384D29700129E5D8FE2386
S315080022D05B00E25C022A0DD0032ADED1002915D163
S315080022E002222000E2546160FFF72FFE200000F072
S315080022F046F9E5E70029F9D0012103226160E25495
S315080023002000FFF715FE0228F0D1C6E7616801290B
S31508002310ECD0C9B22000FFF718FE29786160EFE714
S31508002320CA88012AB9D1FE235B00E35C022B03D0DD
S31508002330032BB2D1211D5CE700232100A3600831DD
S3150800234057E7FE235B00E35C023B012BA5D801237C
S31508002350E36081239B00E358002B01D00323E3604D
S31508002360210002220C3144E74B88012BA8D1812297
S315080023709200A35085239B00E35829009B68200000
S315080023809847B3E7FE235B00E35C023B012B00D9C9
S3150800239083E74B88012B00D092E7812300229B001C
S315080023A0E2501033E8E7C04665030020FE2370B507
S315080023B05B00C35C04000D00032B0FD10B79012BC6
S315080023C00CD885239B00C3589B689847EB88002B3D
S315080023D002D1200000F0D3F8002070BD2000FFF7DE
S315080023E0C8FEF9E770B50D00040060208A882B78CE
S315080023F0D1B20340202B08D1F533FF33E358290027
S315080024009B6820009847002070BD6B78012B21D06F
S31508002410002B2FD0032BF6D1FA33FF33E35C022BC4
S3150800242043D0032B03D02000FFF7A3FEEBE76B880E
S31508002430002B04D14B0602D0200000F00DFD8523A9
S315080024409B00E35829009B6820009847200000F06D
S3150800245096F8D8E7FE235B00E35C022B25D0032B16
S31508002460E1D16B88002BCED14B06EFD0200000F0CF
S3150800247003FDE4E7FE235B00E35C022B15D0032B88
S31508002480D1D17F250D402D01130614D51435200012
S31508002490651900F001FD002810D001232B600222E7
S315080024A02900200000F03DF8ADE74B06ABD0200030
S315080024B000F0D2FCA7E70535FF35E8E72860EEE728
S315080024C00B7803704B784370CA788B7812029B1886
S315080024D043804A790B7912029B188380CA798B79D3
S315080024E012029B18C3807047002330B5984201D169
S315080024F030BD2B00C45C5D1C002CFAD1DBB25B003E
S31508002500023313800B7003234B70013B0578002DB3
S31508002510EED05A1CCD54D2B202330130DBB28C5401
S31508002520F4E71300FA2210B50224520084500A0078
S315080025308361C361002100F0D3FC002010BD10B5F3
S3150800254013000A00002100F0CBFC002010BD130088
S31508002550FA2210B50324520084500200FC32D360DC
S3150800256013610A00002100F0CBFC002010BD10B555
S3150800257013000A00002100F0C3FC002010BDFA2356
S3150800258004225B0010B5C25000231A00190000F09F
S31508002590A7FC002010BDFA2305225B0010B5C25027
S315080025A000231A00190000F0ABFC002010BD000043
S315080025B0F0B514000A6885B0050002910393002A55
S315080025C04AD08318591E09780A293AD1023B1B7842
S315080025D00D2B36D1002378498354FDF795FD002845
S315080025E004D17649200000F080FD2AE074492800CD
S315080025F0FDF78AFD73490028F4D073492800FDF7D2
S3150800260083FD72490028EDD071492800FDF77CFD4D
S3150800261070490028E6D070492800FDF775FD6F4916
S315080026200028DFD06E492800FDF76EFD6D490028A9
S31508002630D8D06D492800FDF767FD00280ED1FDF7B3
S315080026408BFE2000FDF76AFD039B0A9A186001239A
S3150800265013700023029A136005B0F0BD6349280081
S31508002660FDF752FD002807D10121614800F010F955
S315080026700128B6D05F49B5E75F492800FDF744FD54
S31508002680002802D119215D48F0E72B78412B00D0AC
S3150800269090E06B78542B00D08CE0AB782B2B00D0D5
S315080026A088E0EB78572B00D084E02B79522B00D0AA
S315080026B080E06B793D2B7DD1EB79332B73D12900E3
S315080026C04F4E08310222300000F0FEFC10224D4920
S315080026D0300000F099FD29004B4B4C4F18603870BC
S315080026E00A310822300000F0EFFC1022454930007C
S315080026F000F08AFD0022464B010E18603B78123521
S315080027001B185B18010C5B18000A1818414BB270AD
S31508002710387001951A603C4E3E4D33682F68053B6C
S31508002720BB4225D8394D364F2B780222DB43019917
S3150800273038002B7000F0C8FC10223249380000F02F
S3150800274063FD334AC3B21068334A8118334A91424B
S3150800275027D82A7832499A4200D043E73268314965
S31508002760053A00F067F83049012800D03AE738E71B
S31508002770234E02220199300000F0A6FC10222149BE
S31508002780300000F041FD274A2B682049D055D25C1D
S315080027900878013312180A70019A2B6002320192E6
S315080027A0B9E722491EE7302B00D11AE7372B00D0AC
S315080027B060E759E71E4915E7AC3200089A33000866
S315080027C0B1320008C6330008BA320008DD33000803
S315080027D0C6320008CB330008CF3200083133000870
S315080027E0D93200089F330008E3320008EC320008AB
S315080027F00070000894330008F732000800780008D3
S31508002800740300207003002068030020660300207C
S31508002810F40300206C030020FF97FFF7FE970100E2
S3150800282025330008B4030020EF33000805330008F9
S3150800283015330008F7B506000F000192FDF7D2FD23
S31508002840114D00232E600126104C23602168019B40
S31508002850994203D3FDF7DAFD3000FEBD7B185A789E
S31508002860795C1202D31701200A432968FDF702FE94
S3150800287003005842584123684042023323602B68BC
S31508002880064002332B60E1E7FC030020F803002032
S315080028907FB500240D0006000094FDF7A3FD6946E8
S315080028A001A8019402960395FDF74AFE0400FDF778
S315080028B0ADFD60426041C0B204B070BD80B54368EA
S315080028C0054A00AF1360054A1360026882F3088858
S315080028D09847BD4680BDC046480600204C060020E5
S315080028E070B588B01422002103A800F0F6FB8020FA
S315080028F01D4BC0035969E026014359615A691B4DAE
S31508002900024080200092009A596980020143596169
S3150800291080215A69C90202400192019A5A69B60091
S315080029200A435A615B6900220B4002933100280072
S31508002930029BFDF705FF8023902000249B0003934C
S31508002940FF3BFF3B03A9C00505930494FDF742FE30
S31508002950012303A928000396049305940694FDF71A
S3150800296039FE08B070BDC046001002400004004899
S3150800297030B597B0302200210AA800F0AEFB10222D
S31508002980002101A800F0A9FB1422002105A800F0E7
S31508002990A4FB80235B0213938023012402255B0397
S315080029A00AA814930A940B941295FEF711FE0723AE
S315080029B001930023210001A8039304930295FFF7CE
S315080029C01FF880239B020593802305A80993FFF728
S315080029D0B3F817B030BD00008021902010B58900EB
S315080029E0C005FDF7A7FE03000220012B09D0054B01
S315080029F01B68013305D1044B18680130434258411E
S31508002A00013010BD0070000800800008F0B50F24E2
S31508002A10002585B06C442570FDF746FC264F3B0023
S31508002A20FC335D60254BFC335D60FFF7A1FFFFF7C4
S31508002A3057FFFFF7D1FF022804D0012829D12048E3
S31508002A40FFF73CFFFFF74CFF002600F09FF81B4DF1
S31508002A501C4B00942A001C493800FFF7A9FD23786F
S31508002A60002B08D02B00FC335968280089B200F0E7
S31508002A70EFF800232370FDF72FFC801B6328E6D9A7
S31508002A80FDF72AFC8021060089001048FDF75EFE46
S31508002A90DDE7012280210D48FDF752FE8021012243
S31508002AA049000A48FDF74CFE8021012289000748A3
S31508002AB0FDF746FEFEE7C0465006002054070020F4
S31508002AC00080000854080020500700200004004831
S31508002AD07047000001200A4B82B099690143996149
S31508002AE080219A69490502400092009ADA690A43E8
S31508002AF0DA61DB690B400193019B02B07047C0465F
S31508002B00001002407047FEE77047704710B5FDF7A2
S31508002B10DBFB10BD10B50248FEF700FB10BDC04632
S31508002B207C0C00200121134B13481A680A431A60CB
S31508002B305A6802405A601A68104802401A601A68B1
S31508002B400F4802401A605A680E4802400F205A6021
S31508002B50DA6A8243DA621A6B0B4802401A638022E9
S31508002B60186B02431A635A6B8A435A6300229A60A7
S31508002B707047C046001002400CB8FF08FFFFF6FE7B
S31508002B80FFFFFBFFFFFFC0FF6CFEFFFF10B5114CF8
S31508002B90002211492000FFF7A3F9002801D0FFF70A
S31508002BA097FF0E492000FFF7B5F9002801D0FFF777
S31508002BB08FFF0B492000FFF743F9002801D0FFF7E4
S31508002BC087FF2000FFF7AFF9002801D0FFF780FF45
S31508002BD010BDC0465808002024010020000000202F
S31508002BE014010020002070470020704770B50C4C77
S31508002BF00D00060001002000FFF736F92000FFF758
S31508002C0055F908482A680400FC3463683100181826
S31508002C1000F05AFA2B6862680020D318636070BD0A
S31508002C20580800205006002010B5064C0022064918
S31508002C302000FFF70EF905492000FFF715F90020D7
S31508002C4010BDC046580800207C0B00207C0A0020D6
S31508002C500A00862110B5084C89000300605804391B
S31508002C6041580120002906D119002000FFF7F1F884
S31508002C702000FFF700F910BD5808002007B50B4BD8
S31508002C8002689A4211D18020094A0004D169014399
S31508002C90D161D3690022034001931F201100019BD3
S31508002CA0FDF720FB1F20FDF74DFB07BD005C00402C
S31508002CB0001002400100872310B59B00ED31FF315B
S31508002CC0C058FFF74BF910BD1C234B43C318FC3300
S31508002CD0DA69872310B59B00C058FFF773F910BD52
S31508002CE01C234B43C3189A6B872310B59B00C05807
S31508002CF0FFF7A2F910BD872310B59B00C058FFF750
S31508002D0029FA10BD836870B50400022B01D0FFF7BD
S31508002D10DFFE8725AD0001216059FFF706FA6059E5
S31508002D20FFF7E0F970BD0000872310B504009B008B
S31508002D30C058FFF7FDF9A369002B04D00623024A01
S31508002D4011690B43136110BD00ED00E0836910B5EE
S31508002D500400002B06D00621054A13698B4313612C
S31508002D60FFF706FE87239B00E058FFF7ECF910BD36
S31508002D7000ED00E0872370B505001C489B00C55090
S31508002D801B4B8824036008234360063B836003616A
S31508002D900023A40028518361C3610362FDF7DAFCAE
S31508002DA0002801D0FFF794FE0022285911001823A5
S31508002DB0FEF7F4FB2859582300228021FEF7EEFB84
S31508002DC02859C02300228121FEF7E8FB88232859C9
S31508002DD05B0000220121FEF7E1FB802328595B00F6
S31508002DE000228221FEF7DAFB002070BD7C0C002051
S31508002DF0005C004088239B00C05810B5FDF7F0FC26
S31508002E000223032801D8024B1B5C180010BDC046DC
S31508002E100D34000810B514001A0023008824A400F5
S31508002E200059FDF7FDFC0223032801D8014B1B5C62
S31508002E30180010BD0D34000888239B00C05810B533
S31508002E40FDF754FE0223032801D8024B1B5C180029
S31508002E5010BDC0460D34000888239B00C05810B525
S31508002E60FDF7A0FF0223032801D8024B1B5C1800BC
S31508002E7010BDC0460D34000888239B00C05810B505
S31508002E80FDF7DEFF0223032801D8024B1B5C18005E
S31508002E9010BDC0460D34000888239B00C35848B2AD
S31508002EA01C22002806DA7F2001404A439B182A3351
S31508002EB0187870474A439B18FF33D87AF9E7000019
S31508002EC088239B00C05810B5FDF793FC02230328FE
S31508002ED001D8024B1B5C180010BDC0460D34000813
S31508002EE010B58824A4000059FEF71CF8022303280D
S31508002EF001D8024B1B5C180010BDC0460D340008F3
S31508002F0010B58824A4000059FDF7A2FE0223032861
S31508002F1001D8024B1B5C180010BDC0460D340008D2
S31508002F20882310B59B00C058FDF732FF10BD00007E
S31508002F30004870470004002070470000122301482B
S31508002F400B80704740010020042301480B8070471E
S31508002F505401002010B5002452008A18914200D16D
S31508002F6010BD030F092B05D830330B704C700001C8
S31508002F700231F3E73733F8E71A2370B50B800B4BAA
S31508002F800B4C18680B4B1B68C01800280BD00A4B53
S31508002F90A11C08221D68FFF7DDFF2100042212315B
S31508002FA02800FFF7D7FF200070BDC046ACF7FF1F0B
S31508002FB058010020B4F7FF1FB0F7FF1F10B5044CE7
S31508002FC00A0004482100FFF78FFA200010BDC0460A
S31508002FD09C0E00202A34000810B5044C0A00044848
S31508002FE02100FFF781FA200010BDC0469C0E002084
S31508002FF03D34000810B5044C0A0004482100FFF7C8
S3150800300073FA200010BDC0469C0E0020113400083B
S3150800301010B5044C0A0004482100FFF765FA2000A1
S3150800302010BDC0469C0E00201C3400080D4885467D
S315080030300D480E490E4A002302E0D458C450043302
S31508003040C4188C42F9D30B4A0B4C002301E01360D9
S315080030500432A242FBD3FFF765FD00F011F8FFF733
S31508003060D5FCFEE7004000200000002044030020B5
S3150800307068350008480300209C0F0020FEE7000082
S3150800308070B500260C4D0D4C641BA410A64209D140
S31508003090002600F0EFF80A4D0A4C641BA410A6425D
S315080030A005D170BDB300EB5898470136EEE7B3007B
S315080030B0EB5898470136F2E7603500086035000896
S315080030C06035000864350008002310B59A4200D11F
S315080030D010BDCC5CC4540133F8E703008218934250
S315080030E000D1704719700133F9E7031C0A780131DA
S315080030F01A700133002AF9D170470000F0B51F0095
S315080031000E0087B00590039102920C98347800F06F
S315080031108FF8082200194378751C13400CD12D2C02
S315080031200CD101332C780193B51C002F0CD0102F2D
S3150800313014D1302C0AD011E02E00E6E701932B2C8F
S31508003140F3D12C78B51CF0E7302C2FD120222B7820
S315080031509343582B51D110276C780235019B294A85
S3150800316039009E183000FDF77BF8300004913900CD
S31508003170FCF7F0FF01210023494202008C461800A3
S3150800318021003039092913D80C00A7421CDD591C27
S3150800319009D06346824206D302D10499A14202DBD2
S315080031A00123784320182C780135E9E70A27D5E763
S315080031B021004139192901D8373CE6E72100613950
S315080031C0192901D8573CE0E75A1C08D1059A233338
S315080031D01360029B3000002B0BD107B0F0BD019A9B
S315080031E0002A00D04042029A002AF6D0039A002B01
S315080031F000D06A1E029B1A60EFE73024002FADD17B
S315080032000837ABE7FFFFFF7F37B51300064A05000F
S315080032101068046A002C00D1044C0A0000942900A6
S31508003220FFF76CFF3EBDC04674010020D8010020A0
S31508003230EC300068704782B0002900D101A9101E41
S3150800324006D0002B06D013780B601078431E9841E1
S3150800325002B0704702204042FAE70B1E04D0FF2A4C
S3150800326004D98A2303608B3B180070470A70012330
S31508003270FAE70000F8B5C046F8BC08BC9E46704799
S31108003280F8B5C046F8BC08BC9E4670476E
S3150800328C02030405060708090A0B0C0D0E0F10108D
S3150800329C0102030405060708090A0B0C0D0E0F108C
S315080032AC41540D0A0041542B5253540D0A004154F3
S315080032BC2B57484F414D490D0A0041542B56455240
S315080032CC0D0A0041542B494E464F0D0A0041542B0A
S315080032DC5245504F0D0A0041542B4A54410D0A00D1
S315080032EC41542B4246434C520D0A0041542B45522D
S315080032FC4153454150500D0A0041444452455353DD
S3150800330C204552524F520D0A00434F4D4D414E44E3
S3150800331C204552524F520D0A0043524320455252F1
S3150800332C4F520D0A004B69657320526573656172BD
S3150800333C636820616E6420446576656C6F706D6594
S3150800334C6E742043656E7465722D55534220426F18
S3150800335C6F746C6F6164657220666F7220414441AC
S3150800336C512064617461206163717569736974694C
S3150800337C6F6E2073797374656D2E206B6965737225
S3150800338C642E636F6D0D0A004E4F4B0D0A004F4BA2
S3150800339C0D0A006769746875622E636F6D2F656E0A
S315080033AC67696E7375626173692F414441512D4289
S315080033BC6F6F746C6F61646572004F4B0D0A005623
S315080033CC31303020323031392031312031310D0A4B
S315080033DC004144415120426F6F746C6F6164657291
S315080033EC0D0A005752495445204552524F520D0A60
S315080033FC0000000000000000000102030406070894
S3150800340C090002010243444320436F6E6669670054
S3150800341C43444320496E7465726661636500535470
S3150800342C4D6963726F656C656374726F6E696373ED
S3150800343C0053544D3332205669727475616C2043AF
S3150800344C6F6D506F7274004300504F534958002EDD
S3150800345C000020202020202020202028282828286A
S3150800346C2020202020202020202020202020202042
S3150800347C202088101010101010101010101010109A
S3150800348C101004040404040404040404101010109A
S3150800349C1010104141414141410101010101010155
S315080034AC01010101010101010101010101101010C5
S315080034BC1010104242424242420202020202020228
S315080034CC0202020202020202020202020210101098
S315080034DC10200000000000000000000000000000A2
S315080034EC00000000000000000000000000000000C2
S315080034FC00000000000000000000000000000000B2
S3150800350C00000000000000000000000000000000A1
S3150800351C0000000000000000000000000000000091
S3150800352C0000000000000000000000000000000081
S3150800353C0000000000000000000000000000000071
S3150800354C0000000000000000000000000000000061
S3090800355C000000005D
S30908003560E900000868
S30908003564C10000088C
S31508003568B11D0008751D0008FD1C000800000000B4
S31508003578691C0008511C0008C91C00080000000046
S315080035880000000000000000A51C0008991C00089F
S31508003598B11C0008BD1C000809024300020100C04E
S315080035A83209040000010202010005240010010581
S315080035B824010001042402020524060001070582E5
S315080035C80308001009040100020A000000070501A3
S315080035D80240000007058102400000000902430076
S315080035E8020100C032090400000102020100052494
S315080035F8001001052401000104240202052406001E
S31508003608010705820308001009040100020A0000E0
S3150800361800070501020002000705810200020000F2
S315080036280A060002000000400100000009074300DE
S31508003638020104C03209040000010202010005243F
S3150800364800100105240100010424020205240600CD
S3150800365801070582030800FF09040100020A0000A1
S315080036680007050102400000070581024000000026
S3150800367800127A00292C0008E52B0008E92B000817
S31508003688ED2B00083D2F0008492F0008BD2F00081C
S31508003698D92F0008792F0008F52F000811300008DF
S315080036A81201000202020040830440570002010288
S315080036B803010000040309041A03000000000000BF
S315080036C800000000000000000000000000000000E4
S315080036D8000000007801002000000000000000003B
S315080036E800000000000000000000000000000000C4
S315080036F800000000000000000000000000000000B4
S3150800370800000000000000000000000000000000A3
S315080037180000000000000000000000000000000093
S315080037280000000000000000000000000000000083
S315080037380000000000000000430000000000000030
S315080037480000000000000000000000000000000063
S315080037580000000000000000430000000000000010
S315080037680000000000000000000000000000000043
S3150800377800000000000000004300000000000000F0
S315080037880000000000000000000000000000000023
S3150800379800000000000000004300000000000000D0
S315080037A80000000000000000000000000000000003
S315080037B800000000000000004300000000000000B0
S315080037C800000000000000000000000000000000E3
S315080037D80000000000000000430000000000000090
S315080037E800000000000000000000000000000000C3
S315080037F80000000000000000430000000000000070
S3150800380800000000000000000000000000000000A2
S3150800381800000000000000005B320008373200088C
S31508003828000000005D3400085B340008EB3200082D
S31508003838EB320008EB320008EB320008EB320008DE
S31508003848EB320008EB320008EB320008EB320008CE
S31508003858FFFFFFFFFFFFFFFFFFFFFFFFFFFF000060
S3150800386801004153434949000000000000000000D8
S315080038780000000000000000000000000000000032
S3150800388800004153434949000000000000000000B9
S315080038980000000000000000000000000000000012
S309080038A8000000000E
S7050800302D95
